{
  "address": "0x2a3ba21125e3992cD6fbcf6F23913A870CD08C08",
  "abi": [
    {
      "inputs": [
        {
          "internalType": "uint256",
          "name": "_maxSupply",
          "type": "uint256"
        }
      ],
      "stateMutability": "nonpayable",
      "type": "constructor"
    },
    {
      "inputs": [],
      "name": "ERC721EnumerableForbiddenBatchMint",
      "type": "error"
    },
    {
      "inputs": [
        {
          "internalType": "address",
          "name": "sender",
          "type": "address"
        },
        {
          "internalType": "uint256",
          "name": "tokenId",
          "type": "uint256"
        },
        {
          "internalType": "address",
          "name": "owner",
          "type": "address"
        }
      ],
      "name": "ERC721IncorrectOwner",
      "type": "error"
    },
    {
      "inputs": [
        {
          "internalType": "address",
          "name": "operator",
          "type": "address"
        },
        {
          "internalType": "uint256",
          "name": "tokenId",
          "type": "uint256"
        }
      ],
      "name": "ERC721InsufficientApproval",
      "type": "error"
    },
    {
      "inputs": [
        {
          "internalType": "address",
          "name": "approver",
          "type": "address"
        }
      ],
      "name": "ERC721InvalidApprover",
      "type": "error"
    },
    {
      "inputs": [
        {
          "internalType": "address",
          "name": "operator",
          "type": "address"
        }
      ],
      "name": "ERC721InvalidOperator",
      "type": "error"
    },
    {
      "inputs": [
        {
          "internalType": "address",
          "name": "owner",
          "type": "address"
        }
      ],
      "name": "ERC721InvalidOwner",
      "type": "error"
    },
    {
      "inputs": [
        {
          "internalType": "address",
          "name": "receiver",
          "type": "address"
        }
      ],
      "name": "ERC721InvalidReceiver",
      "type": "error"
    },
    {
      "inputs": [
        {
          "internalType": "address",
          "name": "sender",
          "type": "address"
        }
      ],
      "name": "ERC721InvalidSender",
      "type": "error"
    },
    {
      "inputs": [
        {
          "internalType": "uint256",
          "name": "tokenId",
          "type": "uint256"
        }
      ],
      "name": "ERC721NonexistentToken",
      "type": "error"
    },
    {
      "inputs": [
        {
          "internalType": "address",
          "name": "owner",
          "type": "address"
        },
        {
          "internalType": "uint256",
          "name": "index",
          "type": "uint256"
        }
      ],
      "name": "ERC721OutOfBoundsIndex",
      "type": "error"
    },
    {
      "anonymous": false,
      "inputs": [
        {
          "indexed": true,
          "internalType": "address",
          "name": "owner",
          "type": "address"
        },
        {
          "indexed": true,
          "internalType": "address",
          "name": "approved",
          "type": "address"
        },
        {
          "indexed": true,
          "internalType": "uint256",
          "name": "tokenId",
          "type": "uint256"
        }
      ],
      "name": "Approval",
      "type": "event"
    },
    {
      "anonymous": false,
      "inputs": [
        {
          "indexed": true,
          "internalType": "address",
          "name": "owner",
          "type": "address"
        },
        {
          "indexed": true,
          "internalType": "address",
          "name": "operator",
          "type": "address"
        },
        {
          "indexed": false,
          "internalType": "bool",
          "name": "approved",
          "type": "bool"
        }
      ],
      "name": "ApprovalForAll",
      "type": "event"
    },
    {
      "anonymous": false,
      "inputs": [
        {
          "indexed": true,
          "internalType": "address",
          "name": "from",
          "type": "address"
        },
        {
          "indexed": true,
          "internalType": "address",
          "name": "to",
          "type": "address"
        },
        {
          "indexed": true,
          "internalType": "uint256",
          "name": "tokenId",
          "type": "uint256"
        }
      ],
      "name": "Transfer",
      "type": "event"
    },
    {
      "inputs": [
        {
          "internalType": "address",
          "name": "to",
          "type": "address"
        },
        {
          "internalType": "uint256",
          "name": "tokenId",
          "type": "uint256"
        }
      ],
      "name": "approve",
      "outputs": [],
      "stateMutability": "nonpayable",
      "type": "function"
    },
    {
      "inputs": [
        {
          "internalType": "address",
          "name": "owner",
          "type": "address"
        }
      ],
      "name": "balanceOf",
      "outputs": [
        {
          "internalType": "uint256",
          "name": "",
          "type": "uint256"
        }
      ],
      "stateMutability": "view",
      "type": "function"
    },
    {
      "inputs": [
        {
          "internalType": "uint256",
          "name": "_tokenId",
          "type": "uint256"
        },
        {
          "internalType": "address",
          "name": "_minter",
          "type": "address"
        }
      ],
      "name": "deterministicPseudoRandomDNA",
      "outputs": [
        {
          "internalType": "uint256",
          "name": "",
          "type": "uint256"
        }
      ],
      "stateMutability": "pure",
      "type": "function"
    },
    {
      "inputs": [
        {
          "internalType": "uint256",
          "name": "_dna",
          "type": "uint256"
        }
      ],
      "name": "getAccessoriesType",
      "outputs": [
        {
          "internalType": "string",
          "name": "",
          "type": "string"
        }
      ],
      "stateMutability": "view",
      "type": "function"
    },
    {
      "inputs": [
        {
          "internalType": "uint256",
          "name": "tokenId",
          "type": "uint256"
        }
      ],
      "name": "getApproved",
      "outputs": [
        {
          "internalType": "address",
          "name": "",
          "type": "address"
        }
      ],
      "stateMutability": "view",
      "type": "function"
    },
    {
      "inputs": [
        {
          "internalType": "uint256",
          "name": "_dna",
          "type": "uint256"
        }
      ],
      "name": "getClotheColor",
      "outputs": [
        {
          "internalType": "string",
          "name": "",
          "type": "string"
        }
      ],
      "stateMutability": "view",
      "type": "function"
    },
    {
      "inputs": [
        {
          "internalType": "uint256",
          "name": "_dna",
          "type": "uint256"
        }
      ],
      "name": "getClotheType",
      "outputs": [
        {
          "internalType": "string",
          "name": "",
          "type": "string"
        }
      ],
      "stateMutability": "view",
      "type": "function"
    },
    {
      "inputs": [
        {
          "internalType": "uint256",
          "name": "_dna",
          "type": "uint256"
        }
      ],
      "name": "getEyeBrowType",
      "outputs": [
        {
          "internalType": "string",
          "name": "",
          "type": "string"
        }
      ],
      "stateMutability": "view",
      "type": "function"
    },
    {
      "inputs": [
        {
          "internalType": "uint256",
          "name": "_dna",
          "type": "uint256"
        }
      ],
      "name": "getEyeType",
      "outputs": [
        {
          "internalType": "string",
          "name": "",
          "type": "string"
        }
      ],
      "stateMutability": "view",
      "type": "function"
    },
    {
      "inputs": [
        {
          "internalType": "uint256",
          "name": "_dna",
          "type": "uint256"
        }
      ],
      "name": "getFacialHairColor",
      "outputs": [
        {
          "internalType": "string",
          "name": "",
          "type": "string"
        }
      ],
      "stateMutability": "view",
      "type": "function"
    },
    {
      "inputs": [
        {
          "internalType": "uint256",
          "name": "_dna",
          "type": "uint256"
        }
      ],
      "name": "getFacialHairType",
      "outputs": [
        {
          "internalType": "string",
          "name": "",
          "type": "string"
        }
      ],
      "stateMutability": "view",
      "type": "function"
    },
    {
      "inputs": [
        {
          "internalType": "uint256",
          "name": "_dna",
          "type": "uint256"
        }
      ],
      "name": "getGraphicType",
      "outputs": [
        {
          "internalType": "string",
          "name": "",
          "type": "string"
        }
      ],
      "stateMutability": "view",
      "type": "function"
    },
    {
      "inputs": [
        {
          "internalType": "uint256",
          "name": "_dna",
          "type": "uint256"
        }
      ],
      "name": "getHairColor",
      "outputs": [
        {
          "internalType": "string",
          "name": "",
          "type": "string"
        }
      ],
      "stateMutability": "view",
      "type": "function"
    },
    {
      "inputs": [
        {
          "internalType": "uint256",
          "name": "_dna",
          "type": "uint256"
        }
      ],
      "name": "getHatColor",
      "outputs": [
        {
          "internalType": "string",
          "name": "",
          "type": "string"
        }
      ],
      "stateMutability": "view",
      "type": "function"
    },
    {
      "inputs": [
        {
          "internalType": "uint256",
          "name": "_dna",
          "type": "uint256"
        }
      ],
      "name": "getMouthType",
      "outputs": [
        {
          "internalType": "string",
          "name": "",
          "type": "string"
        }
      ],
      "stateMutability": "view",
      "type": "function"
    },
    {
      "inputs": [
        {
          "internalType": "uint256",
          "name": "_dna",
          "type": "uint256"
        }
      ],
      "name": "getSkinColor",
      "outputs": [
        {
          "internalType": "string",
          "name": "",
          "type": "string"
        }
      ],
      "stateMutability": "view",
      "type": "function"
    },
    {
      "inputs": [
        {
          "internalType": "uint256",
          "name": "_dna",
          "type": "uint256"
        }
      ],
      "name": "getTopType",
      "outputs": [
        {
          "internalType": "string",
          "name": "",
          "type": "string"
        }
      ],
      "stateMutability": "view",
      "type": "function"
    },
    {
      "inputs": [
        {
          "internalType": "uint256",
          "name": "_dna",
          "type": "uint256"
        }
      ],
      "name": "imageByDNA",
      "outputs": [
        {
          "internalType": "string",
          "name": "",
          "type": "string"
        }
      ],
      "stateMutability": "view",
      "type": "function"
    },
    {
      "inputs": [
        {
          "internalType": "address",
          "name": "owner",
          "type": "address"
        },
        {
          "internalType": "address",
          "name": "operator",
          "type": "address"
        }
      ],
      "name": "isApprovedForAll",
      "outputs": [
        {
          "internalType": "bool",
          "name": "",
          "type": "bool"
        }
      ],
      "stateMutability": "view",
      "type": "function"
    },
    {
      "inputs": [],
      "name": "maxSupply",
      "outputs": [
        {
          "internalType": "uint256",
          "name": "",
          "type": "uint256"
        }
      ],
      "stateMutability": "view",
      "type": "function"
    },
    {
      "inputs": [],
      "name": "mint",
      "outputs": [],
      "stateMutability": "nonpayable",
      "type": "function"
    },
    {
      "inputs": [],
      "name": "name",
      "outputs": [
        {
          "internalType": "string",
          "name": "",
          "type": "string"
        }
      ],
      "stateMutability": "view",
      "type": "function"
    },
    {
      "inputs": [
        {
          "internalType": "uint256",
          "name": "tokenId",
          "type": "uint256"
        }
      ],
      "name": "ownerOf",
      "outputs": [
        {
          "internalType": "address",
          "name": "",
          "type": "address"
        }
      ],
      "stateMutability": "view",
      "type": "function"
    },
    {
      "inputs": [
        {
          "internalType": "address",
          "name": "from",
          "type": "address"
        },
        {
          "internalType": "address",
          "name": "to",
          "type": "address"
        },
        {
          "internalType": "uint256",
          "name": "tokenId",
          "type": "uint256"
        }
      ],
      "name": "safeTransferFrom",
      "outputs": [],
      "stateMutability": "nonpayable",
      "type": "function"
    },
    {
      "inputs": [
        {
          "internalType": "address",
          "name": "from",
          "type": "address"
        },
        {
          "internalType": "address",
          "name": "to",
          "type": "address"
        },
        {
          "internalType": "uint256",
          "name": "tokenId",
          "type": "uint256"
        },
        {
          "internalType": "bytes",
          "name": "data",
          "type": "bytes"
        }
      ],
      "name": "safeTransferFrom",
      "outputs": [],
      "stateMutability": "nonpayable",
      "type": "function"
    },
    {
      "inputs": [
        {
          "internalType": "address",
          "name": "operator",
          "type": "address"
        },
        {
          "internalType": "bool",
          "name": "approved",
          "type": "bool"
        }
      ],
      "name": "setApprovalForAll",
      "outputs": [],
      "stateMutability": "nonpayable",
      "type": "function"
    },
    {
      "inputs": [
        {
          "internalType": "bytes4",
          "name": "interfaceId",
          "type": "bytes4"
        }
      ],
      "name": "supportsInterface",
      "outputs": [
        {
          "internalType": "bool",
          "name": "",
          "type": "bool"
        }
      ],
      "stateMutability": "view",
      "type": "function"
    },
    {
      "inputs": [],
      "name": "symbol",
      "outputs": [
        {
          "internalType": "string",
          "name": "",
          "type": "string"
        }
      ],
      "stateMutability": "view",
      "type": "function"
    },
    {
      "inputs": [
        {
          "internalType": "uint256",
          "name": "index",
          "type": "uint256"
        }
      ],
      "name": "tokenByIndex",
      "outputs": [
        {
          "internalType": "uint256",
          "name": "",
          "type": "uint256"
        }
      ],
      "stateMutability": "view",
      "type": "function"
    },
    {
      "inputs": [
        {
          "internalType": "uint256",
          "name": "",
          "type": "uint256"
        }
      ],
      "name": "tokenDNA",
      "outputs": [
        {
          "internalType": "uint256",
          "name": "",
          "type": "uint256"
        }
      ],
      "stateMutability": "view",
      "type": "function"
    },
    {
      "inputs": [
        {
          "internalType": "address",
          "name": "owner",
          "type": "address"
        },
        {
          "internalType": "uint256",
          "name": "index",
          "type": "uint256"
        }
      ],
      "name": "tokenOfOwnerByIndex",
      "outputs": [
        {
          "internalType": "uint256",
          "name": "",
          "type": "uint256"
        }
      ],
      "stateMutability": "view",
      "type": "function"
    },
    {
      "inputs": [
        {
          "internalType": "uint256",
          "name": "tokenId",
          "type": "uint256"
        }
      ],
      "name": "tokenURI",
      "outputs": [
        {
          "internalType": "string",
          "name": "",
          "type": "string"
        }
      ],
      "stateMutability": "view",
      "type": "function"
    },
    {
      "inputs": [],
      "name": "totalSupply",
      "outputs": [
        {
          "internalType": "uint256",
          "name": "",
          "type": "uint256"
        }
      ],
      "stateMutability": "view",
      "type": "function"
    },
    {
      "inputs": [
        {
          "internalType": "address",
          "name": "from",
          "type": "address"
        },
        {
          "internalType": "address",
          "name": "to",
          "type": "address"
        },
        {
          "internalType": "uint256",
          "name": "tokenId",
          "type": "uint256"
        }
      ],
      "name": "transferFrom",
      "outputs": [],
      "stateMutability": "nonpayable",
      "type": "function"
    }
  ],
  "transactionHash": "0x81d512420ebe001956b469e270a59136082ed784b862c5c81810c809c5b2295b",
  "args": [
    1000
  ],
  "numDeployments": 1,
  "solcInputHash": "b702985218ec4dca746590875ff68dbe",
  "bytecode": "0x60806040526040518060e001604052806040518060400160405280600581526020017f426c616e6b00000000000000000000000000000000000000000000000000000081525081526020016040518060400160405280600481526020017f4b7572740000000000000000000000000000000000000000000000000000000081525081526020016040518060400160405280600e81526020017f507265736372697074696f6e303100000000000000000000000000000000000081525081526020016040518060400160405280600e81526020017f507265736372697074696f6e303200000000000000000000000000000000000081525081526020016040518060400160405280600581526020017f526f756e6400000000000000000000000000000000000000000000000000000081525081526020016040518060400160405280600a81526020017f53756e676c61737365730000000000000000000000000000000000000000000081525081526020016040518060400160405280600981526020017f5761796661726572730000000000000000000000000000000000000000000000815250815250600a906007620001bc929190620026fa565b50604051806101e001604052806040518060400160405280600581526020017f426c61636b00000000000000000000000000000000000000000000000000000081525081526020016040518060400160405280600681526020017f426c75653031000000000000000000000000000000000000000000000000000081525081526020016040518060400160405280600681526020017f426c75653032000000000000000000000000000000000000000000000000000081525081526020016040518060400160405280600681526020017f426c75653033000000000000000000000000000000000000000000000000000081525081526020016040518060400160405280600681526020017f477261793031000000000000000000000000000000000000000000000000000081525081526020016040518060400160405280600681526020017f477261793032000000000000000000000000000000000000000000000000000081525081526020016040518060400160405280600781526020017f486561746865720000000000000000000000000000000000000000000000000081525081526020016040518060400160405280600a81526020017f50617374656c426c75650000000000000000000000000000000000000000000081525081526020016040518060400160405280600b81526020017f50617374656c477265656e00000000000000000000000000000000000000000081525081526020016040518060400160405280600c81526020017f50617374656c4f72616e6765000000000000000000000000000000000000000081525081526020016040518060400160405280600981526020017f50617374656c526564000000000000000000000000000000000000000000000081525081526020016040518060400160405280600c81526020017f50617374656c59656c6c6f77000000000000000000000000000000000000000081525081526020016040518060400160405280600481526020017f50696e6b0000000000000000000000000000000000000000000000000000000081525081526020016040518060400160405280600381526020017f526564000000000000000000000000000000000000000000000000000000000081525081526020016040518060400160405280600581526020017f5768697465000000000000000000000000000000000000000000000000000000815250815250600b90600f6200054e9291906200275a565b506040518061012001604052806040518060400160405280600b81526020017f426c617a6572536869727400000000000000000000000000000000000000000081525081526020016040518060400160405280600d81526020017f426c617a6572537765617465720000000000000000000000000000000000000081525081526020016040518060400160405280600d81526020017f436f6c6c6172537765617465720000000000000000000000000000000000000081525081526020016040518060400160405280600c81526020017f477261706869635368697274000000000000000000000000000000000000000081525081526020016040518060400160405280600681526020017f486f6f646965000000000000000000000000000000000000000000000000000081525081526020016040518060400160405280600781526020017f4f766572616c6c0000000000000000000000000000000000000000000000000081525081526020016040518060400160405280600d81526020017f5368697274437265774e65636b0000000000000000000000000000000000000081525081526020016040518060400160405280600e81526020017f536869727453636f6f704e65636b00000000000000000000000000000000000081525081526020016040518060400160405280600a81526020017f5368697274564e65636b00000000000000000000000000000000000000000000815250815250600c9060096200077e929190620027ba565b506040518061018001604052806040518060400160405280600581526020017f436c6f736500000000000000000000000000000000000000000000000000000081525081526020016040518060400160405280600381526020017f437279000000000000000000000000000000000000000000000000000000000081525081526020016040518060400160405280600781526020017f44656661756c740000000000000000000000000000000000000000000000000081525081526020016040518060400160405280600581526020017f44697a7a7900000000000000000000000000000000000000000000000000000081525081526020016040518060400160405280600781526020017f457965526f6c6c0000000000000000000000000000000000000000000000000081525081526020016040518060400160405280600581526020017f486170707900000000000000000000000000000000000000000000000000000081525081526020016040518060400160405280600681526020017f486561727473000000000000000000000000000000000000000000000000000081525081526020016040518060400160405280600481526020017f536964650000000000000000000000000000000000000000000000000000000081525081526020016040518060400160405280600681526020017f537175696e74000000000000000000000000000000000000000000000000000081525081526020016040518060400160405280600981526020017f537572707269736564000000000000000000000000000000000000000000000081525081526020016040518060400160405280600481526020017f57696e6b0000000000000000000000000000000000000000000000000000000081525081526020016040518060400160405280600981526020017f57696e6b5761636b790000000000000000000000000000000000000000000000815250815250600d90600c62000a5f9291906200281a565b506040518061018001604052806040518060400160405280600581526020017f416e67727900000000000000000000000000000000000000000000000000000081525081526020016040518060400160405280600c81526020017f416e6772794e61747572616c000000000000000000000000000000000000000081525081526020016040518060400160405280600781526020017f44656661756c740000000000000000000000000000000000000000000000000081525081526020016040518060400160405280600e81526020017f44656661756c744e61747572616c00000000000000000000000000000000000081525081526020016040518060400160405280600b81526020017f466c61744e61747572616c00000000000000000000000000000000000000000081525081526020016040518060400160405280600d81526020017f526169736564457863697465640000000000000000000000000000000000000081525081526020016040518060400160405280601481526020017f526169736564457863697465644e61747572616c00000000000000000000000081525081526020016040518060400160405280600c81526020017f536164436f6e6365726e6564000000000000000000000000000000000000000081525081526020016040518060400160405280601381526020017f536164436f6e6365726e65644e61747572616c0000000000000000000000000081525081526020016040518060400160405280600e81526020017f556e6962726f774e61747572616c00000000000000000000000000000000000081525081526020016040518060400160405280600681526020017f5570446f776e000000000000000000000000000000000000000000000000000081525081526020016040518060400160405280600d81526020017f5570446f776e4e61747572616c00000000000000000000000000000000000000815250815250600e90600c62000d409291906200281a565b506040518061010001604052806040518060400160405280600681526020017f41756275726e000000000000000000000000000000000000000000000000000081525081526020016040518060400160405280600581526020017f426c61636b00000000000000000000000000000000000000000000000000000081525081526020016040518060400160405280600681526020017f426c6f6e6465000000000000000000000000000000000000000000000000000081525081526020016040518060400160405280600c81526020017f426c6f6e6465476f6c64656e000000000000000000000000000000000000000081525081526020016040518060400160405280600581526020017f42726f776e00000000000000000000000000000000000000000000000000000081525081526020016040518060400160405280600981526020017f42726f776e4461726b000000000000000000000000000000000000000000000081525081526020016040518060400160405280600881526020017f506c6174696e756d00000000000000000000000000000000000000000000000081525081526020016040518060400160405280600381526020017f5265640000000000000000000000000000000000000000000000000000000000815250815250600f90600862000f359291906200287a565b506040518060c001604052806040518060400160405280600581526020017f426c616e6b00000000000000000000000000000000000000000000000000000081525081526020016040518060400160405280600b81526020017f42656172644d656469756d00000000000000000000000000000000000000000081525081526020016040518060400160405280600a81526020017f42656172644c696768740000000000000000000000000000000000000000000081525081526020016040518060400160405280600d81526020017f42656172644d616765737469630000000000000000000000000000000000000081525081526020016040518060400160405280600e81526020017f4d6f7573746163686546616e637900000000000000000000000000000000000081525081526020016040518060400160405280600f81526020017f4d6f757374616368654d61676e756d00000000000000000000000000000000008152508152506010906006620010b3929190620028da565b506040518061014001604052806040518060400160405280600681526020017f41756275726e000000000000000000000000000000000000000000000000000081525081526020016040518060400160405280600581526020017f426c61636b00000000000000000000000000000000000000000000000000000081525081526020016040518060400160405280600681526020017f426c6f6e6465000000000000000000000000000000000000000000000000000081525081526020016040518060400160405280600c81526020017f426c6f6e6465476f6c64656e000000000000000000000000000000000000000081525081526020016040518060400160405280600581526020017f42726f776e00000000000000000000000000000000000000000000000000000081525081526020016040518060400160405280600981526020017f42726f776e4461726b000000000000000000000000000000000000000000000081525081526020016040518060400160405280600a81526020017f50617374656c50696e6b0000000000000000000000000000000000000000000081525081526020016040518060400160405280600881526020017f506c6174696e756d00000000000000000000000000000000000000000000000081525081526020016040518060400160405280600381526020017f526564000000000000000000000000000000000000000000000000000000000081525081526020016040518060400160405280600a81526020017f53696c7665724772617900000000000000000000000000000000000000000000815250815250601190600a6200131e9291906200293a565b50604051806101e001604052806040518060400160405280600581526020017f426c61636b00000000000000000000000000000000000000000000000000000081525081526020016040518060400160405280600681526020017f426c75653031000000000000000000000000000000000000000000000000000081525081526020016040518060400160405280600681526020017f426c75653032000000000000000000000000000000000000000000000000000081525081526020016040518060400160405280600681526020017f426c75653033000000000000000000000000000000000000000000000000000081525081526020016040518060400160405280600681526020017f477261793031000000000000000000000000000000000000000000000000000081525081526020016040518060400160405280600681526020017f477261793032000000000000000000000000000000000000000000000000000081525081526020016040518060400160405280600781526020017f486561746865720000000000000000000000000000000000000000000000000081525081526020016040518060400160405280600a81526020017f50617374656c426c75650000000000000000000000000000000000000000000081525081526020016040518060400160405280600b81526020017f50617374656c477265656e00000000000000000000000000000000000000000081525081526020016040518060400160405280600c81526020017f50617374656c4f72616e6765000000000000000000000000000000000000000081525081526020016040518060400160405280600981526020017f50617374656c526564000000000000000000000000000000000000000000000081525081526020016040518060400160405280600c81526020017f50617374656c59656c6c6f77000000000000000000000000000000000000000081525081526020016040518060400160405280600481526020017f50696e6b0000000000000000000000000000000000000000000000000000000081525081526020016040518060400160405280600381526020017f526564000000000000000000000000000000000000000000000000000000000081525081526020016040518060400160405280600581526020017f5768697465000000000000000000000000000000000000000000000000000000815250815250601290600f620016b09291906200275a565b506040518061016001604052806040518060400160405280600381526020017f426174000000000000000000000000000000000000000000000000000000000081525081526020016040518060400160405280600681526020017f43756d626961000000000000000000000000000000000000000000000000000081525081526020016040518060400160405280600481526020017f446565720000000000000000000000000000000000000000000000000000000081525081526020016040518060400160405280600781526020017f4469616d6f6e640000000000000000000000000000000000000000000000000081525081526020016040518060400160405280600481526020017f486f6c610000000000000000000000000000000000000000000000000000000081525081526020016040518060400160405280600581526020017f50697a7a6100000000000000000000000000000000000000000000000000000081525081526020016040518060400160405280600681526020017f526573697374000000000000000000000000000000000000000000000000000081525081526020016040518060400160405280600681526020017f53656c656e61000000000000000000000000000000000000000000000000000081525081526020016040518060400160405280600481526020017f426561720000000000000000000000000000000000000000000000000000000081525081526020016040518060400160405280600c81526020017f536b756c6c4f75746c696e65000000000000000000000000000000000000000081525081526020016040518060400160405280600581526020017f536b756c6c000000000000000000000000000000000000000000000000000000815250815250601390600b620019569291906200299a565b506040518061018001604052806040518060400160405280600981526020017f436f6e6365726e6564000000000000000000000000000000000000000000000081525081526020016040518060400160405280600781526020017f44656661756c740000000000000000000000000000000000000000000000000081525081526020016040518060400160405280600981526020017f44697362656c696566000000000000000000000000000000000000000000000081525081526020016040518060400160405280600681526020017f456174696e67000000000000000000000000000000000000000000000000000081525081526020016040518060400160405280600781526020017f4772696d6163650000000000000000000000000000000000000000000000000081525081526020016040518060400160405280600381526020017f536164000000000000000000000000000000000000000000000000000000000081525081526020016040518060400160405280600a81526020017f53637265616d4f70656e0000000000000000000000000000000000000000000081525081526020016040518060400160405280600781526020017f536572696f75730000000000000000000000000000000000000000000000000081525081526020016040518060400160405280600581526020017f536d696c6500000000000000000000000000000000000000000000000000000081525081526020016040518060400160405280600681526020017f546f6e677565000000000000000000000000000000000000000000000000000081525081526020016040518060400160405280600781526020017f5477696e6b6c650000000000000000000000000000000000000000000000000081525081526020016040518060400160405280600581526020017f566f6d6974000000000000000000000000000000000000000000000000000000815250815250601490600c62001c379291906200281a565b506040518060e001604052806040518060400160405280600681526020017f54616e6e6564000000000000000000000000000000000000000000000000000081525081526020016040518060400160405280600681526020017f59656c6c6f77000000000000000000000000000000000000000000000000000081525081526020016040518060400160405280600481526020017f50616c650000000000000000000000000000000000000000000000000000000081525081526020016040518060400160405280600581526020017f4c6967687400000000000000000000000000000000000000000000000000000081525081526020016040518060400160405280600581526020017f42726f776e00000000000000000000000000000000000000000000000000000081525081526020016040518060400160405280600981526020017f4461726b42726f776e000000000000000000000000000000000000000000000081525081526020016040518060400160405280600581526020017f426c61636b000000000000000000000000000000000000000000000000000000815250815250601590600762001df0929190620026fa565b506040518061046001604052806040518060400160405280600681526020017f4e6f48616972000000000000000000000000000000000000000000000000000081525081526020016040518060400160405280600881526020017f457965706174636800000000000000000000000000000000000000000000000081525081526020016040518060400160405280600381526020017f486174000000000000000000000000000000000000000000000000000000000081525081526020016040518060400160405280600581526020017f48696a616200000000000000000000000000000000000000000000000000000081525081526020016040518060400160405280600681526020017f54757262616e000000000000000000000000000000000000000000000000000081525081526020016040518060400160405280600a81526020017f57696e746572486174310000000000000000000000000000000000000000000081525081526020016040518060400160405280600a81526020017f57696e746572486174320000000000000000000000000000000000000000000081525081526020016040518060400160405280600a81526020017f57696e746572486174330000000000000000000000000000000000000000000081525081526020016040518060400160405280600a81526020017f57696e746572486174340000000000000000000000000000000000000000000081525081526020016040518060400160405280600f81526020017f4c6f6e674861697242696748616972000000000000000000000000000000000081525081526020016040518060400160405280600b81526020017f4c6f6e6748616972426f6200000000000000000000000000000000000000000081525081526020016040518060400160405280600b81526020017f4c6f6e674861697242756e00000000000000000000000000000000000000000081525081526020016040518060400160405280600d81526020017f4c6f6e67486169724375726c790000000000000000000000000000000000000081525081526020016040518060400160405280600d81526020017f4c6f6e674861697243757276790000000000000000000000000000000000000081525081526020016040518060400160405280600e81526020017f4c6f6e674861697244726561647300000000000000000000000000000000000081525081526020016040518060400160405280600d81526020017f4c6f6e674861697246726964610000000000000000000000000000000000000081525081526020016040518060400160405280600b81526020017f4c6f6e674861697246726f00000000000000000000000000000000000000000081525081526020016040518060400160405280600f81526020017f4c6f6e674861697246726f42616e64000000000000000000000000000000000081525081526020016040518060400160405280601281526020017f4c6f6e67486169724e6f74546f6f4c6f6e67000000000000000000000000000081525081526020016040518060400160405280601381526020017f4c6f6e674861697253686176656453696465730000000000000000000000000081525081526020016040518060400160405280601281526020017f4c6f6e67486169724d696157616c6c616365000000000000000000000000000081525081526020016040518060400160405280601081526020017f4c6f6e674861697253747261696768740000000000000000000000000000000081525081526020016040518060400160405280601181526020017f4c6f6e674861697253747261696768743200000000000000000000000000000081525081526020016040518060400160405280601681526020017f4c6f6e67486169725374726169676874537472616e640000000000000000000081525081526020016040518060400160405280601181526020017f53686f727448616972447265616473303100000000000000000000000000000081525081526020016040518060400160405280601181526020017f53686f727448616972447265616473303200000000000000000000000000000081525081526020016040518060400160405280601081526020017f53686f7274486169724672697a7a6c650000000000000000000000000000000081525081526020016040518060400160405280601581526020017f53686f7274486169725368616767794d756c6c6574000000000000000000000081525081526020016040518060400160405280601381526020017f53686f72744861697253686f72744375726c790000000000000000000000000081525081526020016040518060400160405280601281526020017f53686f72744861697253686f7274466c6174000000000000000000000000000081525081526020016040518060400160405280601381526020017f53686f72744861697253686f7274526f756e640000000000000000000000000081525081526020016040518060400160405280601381526020017f53686f72744861697253686f727457617665640000000000000000000000000081525081526020016040518060400160405280600e81526020017f53686f727448616972536964657300000000000000000000000000000000000081525081526020016040518060400160405280601281526020017f53686f727448616972546865436165736172000000000000000000000000000081525081526020016040518060400160405280601a81526020017f53686f727448616972546865436165736172536964655061727400000000000081525081525060169060236200261e929190620029fa565b503480156200262c57600080fd5b506040516200730938038062007309833981810160405281019062002652919062002b27565b6040518060400160405280600381526020017f496d6100000000000000000000000000000000000000000000000000000000008152506040518060400160405280600381526020017f494d4100000000000000000000000000000000000000000000000000000000008152508160009081620026cf919062002dc9565b508060019081620026e1919062002dc9565b5050506000601781905550806018819055505062002eb0565b82805482825590600052602060002090810192821562002747579160200282015b828111156200274657825182908162002735919062002dc9565b50916020019190600101906200271b565b5b50905062002756919062002a5a565b5090565b828054828255906000526020600020908101928215620027a7579160200282015b82811115620027a657825182908162002795919062002dc9565b50916020019190600101906200277b565b5b509050620027b6919062002a5a565b5090565b82805482825590600052602060002090810192821562002807579160200282015b8281111562002806578251829081620027f5919062002dc9565b5091602001919060010190620027db565b5b50905062002816919062002a5a565b5090565b82805482825590600052602060002090810192821562002867579160200282015b828111156200286657825182908162002855919062002dc9565b50916020019190600101906200283b565b5b50905062002876919062002a5a565b5090565b828054828255906000526020600020908101928215620028c7579160200282015b82811115620028c6578251829081620028b5919062002dc9565b50916020019190600101906200289b565b5b509050620028d6919062002a5a565b5090565b82805482825590600052602060002090810192821562002927579160200282015b828111156200292657825182908162002915919062002dc9565b5091602001919060010190620028fb565b5b50905062002936919062002a5a565b5090565b82805482825590600052602060002090810192821562002987579160200282015b828111156200298657825182908162002975919062002dc9565b50916020019190600101906200295b565b5b50905062002996919062002a5a565b5090565b828054828255906000526020600020908101928215620029e7579160200282015b82811115620029e6578251829081620029d5919062002dc9565b5091602001919060010190620029bb565b5b509050620029f6919062002a5a565b5090565b82805482825590600052602060002090810192821562002a47579160200282015b8281111562002a4657825182908162002a35919062002dc9565b509160200191906001019062002a1b565b5b50905062002a56919062002a5a565b5090565b5b8082111562002a7e576000818162002a74919062002a82565b5060010162002a5b565b5090565b50805462002a909062002bc2565b6000825580601f1062002aa4575062002ac5565b601f01602090049060005260206000209081019062002ac4919062002ac8565b5b50565b5b8082111562002ae357600081600090555060010162002ac9565b5090565b600080fd5b6000819050919050565b62002b018162002aec565b811462002b0d57600080fd5b50565b60008151905062002b218162002af6565b92915050565b60006020828403121562002b405762002b3f62002ae7565b5b600062002b508482850162002b10565b91505092915050565b600081519050919050565b7f4e487b7100000000000000000000000000000000000000000000000000000000600052604160045260246000fd5b7f4e487b7100000000000000000000000000000000000000000000000000000000600052602260045260246000fd5b6000600282049050600182168062002bdb57607f821691505b60208210810362002bf15762002bf062002b93565b5b50919050565b60008190508160005260206000209050919050565b60006020601f8301049050919050565b600082821b905092915050565b60006008830262002c5b7fffffffffffffffffffffffffffffffffffffffffffffffffffffffffffffffff8262002c1c565b62002c67868362002c1c565b95508019841693508086168417925050509392505050565b6000819050919050565b600062002caa62002ca462002c9e8462002aec565b62002c7f565b62002aec565b9050919050565b6000819050919050565b62002cc68362002c89565b62002cde62002cd58262002cb1565b84845462002c29565b825550505050565b600090565b62002cf562002ce6565b62002d0281848462002cbb565b505050565b5b8181101562002d2a5762002d1e60008262002ceb565b60018101905062002d08565b5050565b601f82111562002d795762002d438162002bf7565b62002d4e8462002c0c565b8101602085101562002d5e578190505b62002d7662002d6d8562002c0c565b83018262002d07565b50505b505050565b600082821c905092915050565b600062002d9e6000198460080262002d7e565b1980831691505092915050565b600062002db9838362002d8b565b9150826002028217905092915050565b62002dd48262002b59565b67ffffffffffffffff81111562002df05762002def62002b64565b5b62002dfc825462002bc2565b62002e0982828562002d2e565b600060209050601f83116001811462002e41576000841562002e2c578287015190505b62002e38858262002dab565b86555062002ea8565b601f19841662002e518662002bf7565b60005b8281101562002e7b5784890151825560018201915060208501945060208101905062002e54565b8683101562002e9b578489015162002e97601f89168262002d8b565b8355505b6001600288020188555050505b505050505050565b6144498062002ec06000396000f3fe608060405234801561001057600080fd5b50600436106102065760003560e01c80637ecaef061161011a578063b88d4fde116100ad578063cc4e56951161007c578063cc4e5695146106bb578063d5abeb01146106eb578063dac1419e14610709578063e2eced2814610739578063e985e9c51461076957610206565b8063b88d4fde1461060f578063be65d7511461062b578063c0496cf51461065b578063c87b56dd1461068b57610206565b806395d89b41116100e957806395d89b4114610575578063a22cb46514610593578063a2ec3e9e146105af578063b70930de146105df57610206565b80637ecaef06146104b557806384425a84146104e55780638602dd6a1461051557806388ee2c161461054557610206565b806323b872dd1161019d5780634f6ccce71161016c5780634f6ccce7146103c557806360d58aed146103f55780636352211e1461042557806370a082311461045557806373075aff1461048557610206565b806323b872dd1461032d5780632f745c5914610349578063425d784f1461037957806342842e0e146103a957610206565b8063095ea7b3116101d9578063095ea7b3146102b95780631249c58b146102d557806318160ddd146102df57806318a3c0d1146102fd57610206565b806301ffc9a71461020b578063039984ba1461023b57806306fdde031461026b578063081812fc14610289575b600080fd5b61022560048036038101906102209190613037565b610799565b604051610232919061307f565b60405180910390f35b610255600480360381019061025091906130d0565b6107ab565b604051610262919061318d565b60405180910390f35b61027361087d565b604051610280919061318d565b60405180910390f35b6102a3600480360381019061029e91906130d0565b61090f565b6040516102b091906131f0565b60405180910390f35b6102d360048036038101906102ce9190613237565b61092b565b005b6102dd610941565b005b6102e76109d4565b6040516102f49190613286565b60405180910390f35b610317600480360381019061031291906130d0565b6109e1565b604051610324919061318d565b60405180910390f35b610347600480360381019061034291906132a1565b610ab3565b005b610363600480360381019061035e9190613237565b610bb5565b6040516103709190613286565b60405180910390f35b610393600480360381019061038e91906130d0565b610c5e565b6040516103a0919061318d565b60405180910390f35b6103c360048036038101906103be91906132a1565b610d30565b005b6103df60048036038101906103da91906130d0565b610d50565b6040516103ec9190613286565b60405180910390f35b61040f600480360381019061040a91906130d0565b610dc6565b60405161041c919061318d565b60405180910390f35b61043f600480360381019061043a91906130d0565b610e98565b60405161044c91906131f0565b60405180910390f35b61046f600480360381019061046a91906132f4565b610eaa565b60405161047c9190613286565b60405180910390f35b61049f600480360381019061049a91906130d0565b610f64565b6040516104ac919061318d565b60405180910390f35b6104cf60048036038101906104ca91906130d0565b611036565b6040516104dc919061318d565b60405180910390f35b6104ff60048036038101906104fa91906130d0565b611108565b60405161050c919061318d565b60405180910390f35b61052f600480360381019061052a91906130d0565b6111da565b60405161053c919061318d565b60405180910390f35b61055f600480360381019061055a9190613321565b6112ac565b60405161056c9190613286565b60405180910390f35b61057d611312565b60405161058a919061318d565b60405180910390f35b6105ad60048036038101906105a8919061338d565b6113a4565b005b6105c960048036038101906105c491906130d0565b6113ba565b6040516105d6919061318d565b60405180910390f35b6105f960048036038101906105f491906130d0565b61148c565b604051610606919061318d565b60405180910390f35b61062960048036038101906106249190613502565b61155e565b005b610645600480360381019061064091906130d0565b61157b565b6040516106529190613286565b60405180910390f35b610675600480360381019061067091906130d0565b611593565b604051610682919061318d565b60405180910390f35b6106a560048036038101906106a091906130d0565b611665565b6040516106b2919061318d565b60405180910390f35b6106d560048036038101906106d091906130d0565b611734565b6040516106e2919061318d565b60405180910390f35b6106f3611806565b6040516107009190613286565b60405180910390f35b610723600480360381019061071e91906130d0565b61180c565b604051610730919061318d565b60405180910390f35b610753600480360381019061074e91906130d0565b6118de565b604051610760919061318d565b60405180910390f35b610783600480360381019061077e9190613585565b611924565b604051610790919061307f565b60405180910390f35b60006107a4826119b8565b9050919050565b606060006107ba836008611a32565b60ff169050600e8080549050826107d191906135f4565b815481106107e2576107e1613625565b5b9060005260206000200180546107f790613683565b80601f016020809104026020016040519081016040528092919081815260200182805461082390613683565b80156108705780601f1061084557610100808354040283529160200191610870565b820191906000526020600020905b81548152906001019060200180831161085357829003601f168201915b5050505050915050919050565b60606000805461088c90613683565b80601f01602080910402602001604051908101604052809291908181526020018280546108b890613683565b80156109055780601f106108da57610100808354040283529160200191610905565b820191906000526020600020905b8154815290600101906020018083116108e857829003601f168201915b5050505050905090565b600061091a82611a8f565b5061092482611b17565b9050919050565b61093d8282610938611b54565b611b5c565b5050565b60006017549050601854811061098c576040517f08c379a000000000000000000000000000000000000000000000000000000000815260040161098390613700565b60405180910390fd5b61099681336112ac565b60196000838152602001908152602001600020819055506109b73382611b6e565b6001601760008282546109ca919061374f565b9250508190555050565b6000600880549050905090565b606060006109f0836004611a32565b60ff169050600c808054905082610a0791906135f4565b81548110610a1857610a17613625565b5b906000526020600020018054610a2d90613683565b80601f0160208091040260200160405190810160405280929190818152602001828054610a5990613683565b8015610aa65780601f10610a7b57610100808354040283529160200191610aa6565b820191906000526020600020905b815481529060010190602001808311610a8957829003601f168201915b5050505050915050919050565b600073ffffffffffffffffffffffffffffffffffffffff168273ffffffffffffffffffffffffffffffffffffffff1603610b255760006040517f64a0ae92000000000000000000000000000000000000000000000000000000008152600401610b1c91906131f0565b60405180910390fd5b6000610b398383610b34611b54565b611b8c565b90508373ffffffffffffffffffffffffffffffffffffffff168173ffffffffffffffffffffffffffffffffffffffff1614610baf578382826040517f64283d7b000000000000000000000000000000000000000000000000000000008152600401610ba693929190613783565b60405180910390fd5b50505050565b6000610bc083610eaa565b8210610c055782826040517fa57d13dc000000000000000000000000000000000000000000000000000000008152600401610bfc9291906137ba565b60405180910390fd5b600660008473ffffffffffffffffffffffffffffffffffffffff1673ffffffffffffffffffffffffffffffffffffffff168152602001908152602001600020600083815260200190815260200160002054905092915050565b60606000610c6d836014611a32565b60ff1690506014808054905082610c8491906135f4565b81548110610c9557610c94613625565b5b906000526020600020018054610caa90613683565b80601f0160208091040260200160405190810160405280929190818152602001828054610cd690613683565b8015610d235780601f10610cf857610100808354040283529160200191610d23565b820191906000526020600020905b815481529060010190602001808311610d0657829003601f168201915b5050505050915050919050565b610d4b8383836040518060200160405280600081525061155e565b505050565b6000610d5a6109d4565b8210610da0576000826040517fa57d13dc000000000000000000000000000000000000000000000000000000008152600401610d979291906137ba565b60405180910390fd5b60088281548110610db457610db3613625565b5b90600052602060002001549050919050565b60606000610dd5836018611a32565b60ff1690506016808054905082610dec91906135f4565b81548110610dfd57610dfc613625565b5b906000526020600020018054610e1290613683565b80601f0160208091040260200160405190810160405280929190818152602001828054610e3e90613683565b8015610e8b5780601f10610e6057610100808354040283529160200191610e8b565b820191906000526020600020905b815481529060010190602001808311610e6e57829003601f168201915b5050505050915050919050565b6000610ea382611a8f565b9050919050565b60008073ffffffffffffffffffffffffffffffffffffffff168273ffffffffffffffffffffffffffffffffffffffff1603610f1d5760006040517f89c62b64000000000000000000000000000000000000000000000000000000008152600401610f1491906131f0565b60405180910390fd5b600360008373ffffffffffffffffffffffffffffffffffffffff1673ffffffffffffffffffffffffffffffffffffffff168152602001908152602001600020549050919050565b60606000610f73836016611a32565b60ff1690506015808054905082610f8a91906135f4565b81548110610f9b57610f9a613625565b5b906000526020600020018054610fb090613683565b80601f0160208091040260200160405190810160405280929190818152602001828054610fdc90613683565b80156110295780601f10610ffe57610100808354040283529160200191611029565b820191906000526020600020905b81548152906001019060200180831161100c57829003601f168201915b5050505050915050919050565b60606000611045836000611a32565b9050600a80805490508260ff1661105c91906135f4565b8154811061106d5761106c613625565b5b90600052602060002001805461108290613683565b80601f01602080910402602001604051908101604052809291908181526020018280546110ae90613683565b80156110fb5780601f106110d0576101008083540402835291602001916110fb565b820191906000526020600020905b8154815290600101906020018083116110de57829003601f168201915b5050505050915050919050565b60606000611117836006611a32565b60ff169050600d80805490508261112e91906135f4565b8154811061113f5761113e613625565b5b90600052602060002001805461115490613683565b80601f016020809104026020016040519081016040528092919081815260200182805461118090613683565b80156111cd5780601f106111a2576101008083540402835291602001916111cd565b820191906000526020600020905b8154815290600101906020018083116111b057829003601f168201915b5050505050915050919050565b606060006111e9836012611a32565b60ff169050601380805490508261120091906135f4565b8154811061121157611210613625565b5b90600052602060002001805461122690613683565b80601f016020809104026020016040519081016040528092919081815260200182805461125290613683565b801561129f5780601f106112745761010080835404028352916020019161129f565b820191906000526020600020905b81548152906001019060200180831161128257829003601f168201915b5050505050915050919050565b6000808273ffffffffffffffffffffffffffffffffffffffff16846112d1919061374f565b90506000816040516020016112e69190613804565b60405160208183030381529060405290506000818051906020012090508060001c935050505092915050565b60606001805461132190613683565b80601f016020809104026020016040519081016040528092919081815260200182805461134d90613683565b801561139a5780601f1061136f5761010080835404028352916020019161139a565b820191906000526020600020905b81548152906001019060200180831161137d57829003601f168201915b5050505050905090565b6113b66113af611b54565b8383611ba2565b5050565b606060006113c9836010611a32565b60ff16905060128080549050826113e091906135f4565b815481106113f1576113f0613625565b5b90600052602060002001805461140690613683565b80601f016020809104026020016040519081016040528092919081815260200182805461143290613683565b801561147f5780601f106114545761010080835404028352916020019161147f565b820191906000526020600020905b81548152906001019060200180831161146257829003601f168201915b5050505050915050919050565b6060600061149b83600e611a32565b60ff16905060118080549050826114b291906135f4565b815481106114c3576114c2613625565b5b9060005260206000200180546114d890613683565b80601f016020809104026020016040519081016040528092919081815260200182805461150490613683565b80156115515780601f1061152657610100808354040283529160200191611551565b820191906000526020600020905b81548152906001019060200180831161153457829003601f168201915b5050505050915050919050565b611569848484610ab3565b61157584848484611d11565b50505050565b60196020528060005260406000206000915090505481565b606060006115a2836002611a32565b9050600b80805490508260ff166115b991906135f4565b815481106115ca576115c9613625565b5b9060005260206000200180546115df90613683565b80601f016020809104026020016040519081016040528092919081815260200182805461160b90613683565b80156116585780601f1061162d57610100808354040283529160200191611658565b820191906000526020600020905b81548152906001019060200180831161163b57829003601f168201915b5050505050915050919050565b606061167082611ec8565b6116af576040517f08c379a00000000000000000000000000000000000000000000000000000000081526004016116a690613891565b60405180910390fd5b60006019600084815260200190815260200160002054905060006116d2826118de565b905060006117086116e286611f09565b836040516020016116f49291906139f7565b604051602081830303815290604052611fd7565b90508060405160200161171b9190613a88565b6040516020818303038152906040529350505050919050565b6060600061174383600a611a32565b60ff169050600f80805490508261175a91906135f4565b8154811061176b5761176a613625565b5b90600052602060002001805461178090613683565b80601f01602080910402602001604051908101604052809291908181526020018280546117ac90613683565b80156117f95780601f106117ce576101008083540402835291602001916117f9565b820191906000526020600020905b8154815290600101906020018083116117dc57829003601f168201915b5050505050915050919050565b60185481565b6060600061181b83600c611a32565b60ff169050601080805490508261183291906135f4565b8154811061184357611842613625565b5b90600052602060002001805461185890613683565b80601f016020809104026020016040519081016040528092919081815260200182805461188490613683565b80156118d15780601f106118a6576101008083540402835291602001916118d1565b820191906000526020600020905b8154815290600101906020018083116118b457829003601f168201915b5050505050915050919050565b606060006118ea612149565b905060006118f784612186565b9050818160405160200161190c929190613af6565b60405160208183030381529060405292505050919050565b6000600560008473ffffffffffffffffffffffffffffffffffffffff1673ffffffffffffffffffffffffffffffffffffffff16815260200190815260200160002060008373ffffffffffffffffffffffffffffffffffffffff1673ffffffffffffffffffffffffffffffffffffffff16815260200190815260200160002060009054906101000a900460ff16905092915050565b60007f780e9d63000000000000000000000000000000000000000000000000000000007bffffffffffffffffffffffffffffffffffffffffffffffffffffffff1916827bffffffffffffffffffffffffffffffffffffffffffffffffffffffff19161480611a2b5750611a2a82612253565b5b9050919050565b600081600a611a419190613c65565b6001611a4d9190613cb0565b600283611a5a9190613cf2565b600a611a669190613c65565b6001611a729190613cb0565b84611a7d91906135f4565b611a879190613d27565b905092915050565b600080611a9b83612335565b9050600073ffffffffffffffffffffffffffffffffffffffff168173ffffffffffffffffffffffffffffffffffffffff1603611b0e57826040517f7e273289000000000000000000000000000000000000000000000000000000008152600401611b059190613286565b60405180910390fd5b80915050919050565b60006004600083815260200190815260200160002060009054906101000a900473ffffffffffffffffffffffffffffffffffffffff169050919050565b600033905090565b611b698383836001612372565b505050565b611b88828260405180602001604052806000815250612537565b5050565b6000611b99848484612553565b90509392505050565b600073ffffffffffffffffffffffffffffffffffffffff168273ffffffffffffffffffffffffffffffffffffffff1603611c1357816040517f5b08ba18000000000000000000000000000000000000000000000000000000008152600401611c0a91906131f0565b60405180910390fd5b80600560008573ffffffffffffffffffffffffffffffffffffffff1673ffffffffffffffffffffffffffffffffffffffff16815260200190815260200160002060008473ffffffffffffffffffffffffffffffffffffffff1673ffffffffffffffffffffffffffffffffffffffff16815260200190815260200160002060006101000a81548160ff0219169083151502179055508173ffffffffffffffffffffffffffffffffffffffff168373ffffffffffffffffffffffffffffffffffffffff167f17307eab39ab6107e8899845ad3d59bd9653f200f220920489ca2b5937696c3183604051611d04919061307f565b60405180910390a3505050565b60008373ffffffffffffffffffffffffffffffffffffffff163b1115611ec2578273ffffffffffffffffffffffffffffffffffffffff1663150b7a02611d55611b54565b8685856040518563ffffffff1660e01b8152600401611d779493929190613dad565b6020604051808303816000875af1925050508015611db357506040513d601f19601f82011682018060405250810190611db09190613e0e565b60015b611e37573d8060008114611de3576040519150601f19603f3d011682016040523d82523d6000602084013e611de8565b606091505b506000815103611e2f57836040517f64a0ae92000000000000000000000000000000000000000000000000000000008152600401611e2691906131f0565b60405180910390fd5b805181602001fd5b63150b7a0260e01b7bffffffffffffffffffffffffffffffffffffffffffffffffffffffff1916817bffffffffffffffffffffffffffffffffffffffffffffffffffffffff191614611ec057836040517f64a0ae92000000000000000000000000000000000000000000000000000000008152600401611eb791906131f0565b60405180910390fd5b505b50505050565b60008073ffffffffffffffffffffffffffffffffffffffff16611eea83612335565b73ffffffffffffffffffffffffffffffffffffffff1614159050919050565b606060006001611f1884612670565b01905060008167ffffffffffffffff811115611f3757611f366133d7565b5b6040519080825280601f01601f191660200182016040528015611f695781602001600182028036833780820191505090505b509050600082602001820190505b600115611fcc578080600190039150507f3031323334353637383961626364656600000000000000000000000000000000600a86061a8153600a8581611fc057611fbf6135c5565b5b04945060008503611f77575b819350505050919050565b60606000825103611ff957604051806020016040528060008152509050612144565b60006040518060600160405280604081526020016143d46040913990506000600360028551612028919061374f565b6120329190613d27565b600461203e9190613cb0565b67ffffffffffffffff811115612057576120566133d7565b5b6040519080825280601f01601f1916602001820160405280156120895781602001600182028036833780820191505090505b50905060018201602082018586518701602081018051600082525b828410156120ff576003840193508351603f8160121c168701518653600186019550603f81600c1c168701518653600186019550603f8160061c168701518653600186019550603f81168701518653600186019550506120a4565b80825260038a51066001811461211c576002811461212f57612137565b603d6001870353603d6002870353612137565b603d60018703535b5050505050505080925050505b919050565b60606040518060400160405280601981526020017f68747470733a2f2f6765746176617461616172732e636f6d2f00000000000000815250905090565b60608061219283611036565b61219b84611593565b6121a4856109e1565b6121ad86611108565b6121b6876107ab565b6121bf88611734565b6121c88961180c565b6121d18a61148c565b6121da8b6113ba565b6121e38c6111da565b6121ec8d610c5e565b6121f58e610f64565b6040516020016122109c9b9a999897969594939291906141cb565b60405160208183030381529060405290508061222b84610dc6565b60405160200161223c929190614341565b604051602081830303815290604052915050919050565b60007f80ac58cd000000000000000000000000000000000000000000000000000000007bffffffffffffffffffffffffffffffffffffffffffffffffffffffff1916827bffffffffffffffffffffffffffffffffffffffffffffffffffffffff1916148061231e57507f5b5e139f000000000000000000000000000000000000000000000000000000007bffffffffffffffffffffffffffffffffffffffffffffffffffffffff1916827bffffffffffffffffffffffffffffffffffffffffffffffffffffffff1916145b8061232e575061232d826127c3565b5b9050919050565b60006002600083815260200190815260200160002060009054906101000a900473ffffffffffffffffffffffffffffffffffffffff169050919050565b80806123ab5750600073ffffffffffffffffffffffffffffffffffffffff168273ffffffffffffffffffffffffffffffffffffffff1614155b156124df5760006123bb84611a8f565b9050600073ffffffffffffffffffffffffffffffffffffffff168373ffffffffffffffffffffffffffffffffffffffff161415801561242657508273ffffffffffffffffffffffffffffffffffffffff168173ffffffffffffffffffffffffffffffffffffffff1614155b801561243957506124378184611924565b155b1561247b57826040517fa9fbf51f00000000000000000000000000000000000000000000000000000000815260040161247291906131f0565b60405180910390fd5b81156124dd57838573ffffffffffffffffffffffffffffffffffffffff168273ffffffffffffffffffffffffffffffffffffffff167f8c5be1e5ebec7d5bd14f71427d1e84f3dd0314c0f7b2291e5b200ac8c7c3b92560405160405180910390a45b505b836004600085815260200190815260200160002060006101000a81548173ffffffffffffffffffffffffffffffffffffffff021916908373ffffffffffffffffffffffffffffffffffffffff16021790555050505050565b612541838361282d565b61254e6000848484611d11565b505050565b600080612561858585612926565b9050600073ffffffffffffffffffffffffffffffffffffffff168173ffffffffffffffffffffffffffffffffffffffff16036125a5576125a084612b40565b6125e4565b8473ffffffffffffffffffffffffffffffffffffffff168173ffffffffffffffffffffffffffffffffffffffff16146125e3576125e28185612b89565b5b5b600073ffffffffffffffffffffffffffffffffffffffff168573ffffffffffffffffffffffffffffffffffffffff16036126265761262184612cea565b612665565b8473ffffffffffffffffffffffffffffffffffffffff168173ffffffffffffffffffffffffffffffffffffffff1614612664576126638585612dbb565b5b5b809150509392505050565b600080600090507a184f03e93ff9f4daa797ed6e38ed64bf6a1f01000000000000000083106126ce577a184f03e93ff9f4daa797ed6e38ed64bf6a1f01000000000000000083816126c4576126c36135c5565b5b0492506040810190505b6d04ee2d6d415b85acef8100000000831061270b576d04ee2d6d415b85acef81000000008381612701576127006135c5565b5b0492506020810190505b662386f26fc10000831061273a57662386f26fc1000083816127305761272f6135c5565b5b0492506010810190505b6305f5e1008310612763576305f5e1008381612759576127586135c5565b5b0492506008810190505b612710831061278857612710838161277e5761277d6135c5565b5b0492506004810190505b606483106127ab57606483816127a1576127a06135c5565b5b0492506002810190505b600a83106127ba576001810190505b80915050919050565b60007f01ffc9a7000000000000000000000000000000000000000000000000000000007bffffffffffffffffffffffffffffffffffffffffffffffffffffffff1916827bffffffffffffffffffffffffffffffffffffffffffffffffffffffff1916149050919050565b600073ffffffffffffffffffffffffffffffffffffffff168273ffffffffffffffffffffffffffffffffffffffff160361289f5760006040517f64a0ae9200000000000000000000000000000000000000000000000000000000815260040161289691906131f0565b60405180910390fd5b60006128ad83836000611b8c565b9050600073ffffffffffffffffffffffffffffffffffffffff168173ffffffffffffffffffffffffffffffffffffffff16146129215760006040517f73c6ac6e00000000000000000000000000000000000000000000000000000000815260040161291891906131f0565b60405180910390fd5b505050565b60008061293284612335565b9050600073ffffffffffffffffffffffffffffffffffffffff168373ffffffffffffffffffffffffffffffffffffffff161461297457612973818486612e46565b5b600073ffffffffffffffffffffffffffffffffffffffff168173ffffffffffffffffffffffffffffffffffffffff1614612a05576129b6600085600080612372565b6001600360008373ffffffffffffffffffffffffffffffffffffffff1673ffffffffffffffffffffffffffffffffffffffff168152602001908152602001600020600082825403925050819055505b600073ffffffffffffffffffffffffffffffffffffffff168573ffffffffffffffffffffffffffffffffffffffff1614612a88576001600360008773ffffffffffffffffffffffffffffffffffffffff1673ffffffffffffffffffffffffffffffffffffffff168152602001908152602001600020600082825401925050819055505b846002600086815260200190815260200160002060006101000a81548173ffffffffffffffffffffffffffffffffffffffff021916908373ffffffffffffffffffffffffffffffffffffffff160217905550838573ffffffffffffffffffffffffffffffffffffffff168273ffffffffffffffffffffffffffffffffffffffff167fddf252ad1be2c89b69c2b068fc378daa952ba7f163c4a11628f55a4df523b3ef60405160405180910390a4809150509392505050565b6008805490506009600083815260200190815260200160002081905550600881908060018154018082558091505060019003906000526020600020016000909190919091505550565b6000612b9483610eaa565b9050600060076000848152602001908152602001600020549050818114612c79576000600660008673ffffffffffffffffffffffffffffffffffffffff1673ffffffffffffffffffffffffffffffffffffffff168152602001908152602001600020600084815260200190815260200160002054905080600660008773ffffffffffffffffffffffffffffffffffffffff1673ffffffffffffffffffffffffffffffffffffffff168152602001908152602001600020600084815260200190815260200160002081905550816007600083815260200190815260200160002081905550505b6007600084815260200190815260200160002060009055600660008573ffffffffffffffffffffffffffffffffffffffff1673ffffffffffffffffffffffffffffffffffffffff16815260200190815260200160002060008381526020019081526020016000206000905550505050565b60006001600880549050612cfe9190614370565b9050600060096000848152602001908152602001600020549050600060088381548110612d2e57612d2d613625565b5b906000526020600020015490508060088381548110612d5057612d4f613625565b5b906000526020600020018190555081600960008381526020019081526020016000208190555060096000858152602001908152602001600020600090556008805480612d9f57612d9e6143a4565b5b6001900381819060005260206000200160009055905550505050565b60006001612dc884610eaa565b612dd29190614370565b905081600660008573ffffffffffffffffffffffffffffffffffffffff1673ffffffffffffffffffffffffffffffffffffffff168152602001908152602001600020600083815260200190815260200160002081905550806007600084815260200190815260200160002081905550505050565b612e51838383612f0a565b612f0557600073ffffffffffffffffffffffffffffffffffffffff168373ffffffffffffffffffffffffffffffffffffffff1603612ec657806040517f7e273289000000000000000000000000000000000000000000000000000000008152600401612ebd9190613286565b60405180910390fd5b81816040517f177e802f000000000000000000000000000000000000000000000000000000008152600401612efc9291906137ba565b60405180910390fd5b505050565b60008073ffffffffffffffffffffffffffffffffffffffff168373ffffffffffffffffffffffffffffffffffffffff1614158015612fc257508273ffffffffffffffffffffffffffffffffffffffff168473ffffffffffffffffffffffffffffffffffffffff161480612f835750612f828484611924565b5b80612fc157508273ffffffffffffffffffffffffffffffffffffffff16612fa983611b17565b73ffffffffffffffffffffffffffffffffffffffff16145b5b90509392505050565b6000604051905090565b600080fd5b600080fd5b60007fffffffff0000000000000000000000000000000000000000000000000000000082169050919050565b61301481612fdf565b811461301f57600080fd5b50565b6000813590506130318161300b565b92915050565b60006020828403121561304d5761304c612fd5565b5b600061305b84828501613022565b91505092915050565b60008115159050919050565b61307981613064565b82525050565b60006020820190506130946000830184613070565b92915050565b6000819050919050565b6130ad8161309a565b81146130b857600080fd5b50565b6000813590506130ca816130a4565b92915050565b6000602082840312156130e6576130e5612fd5565b5b60006130f4848285016130bb565b91505092915050565b600081519050919050565b600082825260208201905092915050565b60005b8381101561313757808201518184015260208101905061311c565b60008484015250505050565b6000601f19601f8301169050919050565b600061315f826130fd565b6131698185613108565b9350613179818560208601613119565b61318281613143565b840191505092915050565b600060208201905081810360008301526131a78184613154565b905092915050565b600073ffffffffffffffffffffffffffffffffffffffff82169050919050565b60006131da826131af565b9050919050565b6131ea816131cf565b82525050565b600060208201905061320560008301846131e1565b92915050565b613214816131cf565b811461321f57600080fd5b50565b6000813590506132318161320b565b92915050565b6000806040838503121561324e5761324d612fd5565b5b600061325c85828601613222565b925050602061326d858286016130bb565b9150509250929050565b6132808161309a565b82525050565b600060208201905061329b6000830184613277565b92915050565b6000806000606084860312156132ba576132b9612fd5565b5b60006132c886828701613222565b93505060206132d986828701613222565b92505060406132ea868287016130bb565b9150509250925092565b60006020828403121561330a57613309612fd5565b5b600061331884828501613222565b91505092915050565b6000806040838503121561333857613337612fd5565b5b6000613346858286016130bb565b925050602061335785828601613222565b9150509250929050565b61336a81613064565b811461337557600080fd5b50565b60008135905061338781613361565b92915050565b600080604083850312156133a4576133a3612fd5565b5b60006133b285828601613222565b92505060206133c385828601613378565b9150509250929050565b600080fd5b600080fd5b7f4e487b7100000000000000000000000000000000000000000000000000000000600052604160045260246000fd5b61340f82613143565b810181811067ffffffffffffffff8211171561342e5761342d6133d7565b5b80604052505050565b6000613441612fcb565b905061344d8282613406565b919050565b600067ffffffffffffffff82111561346d5761346c6133d7565b5b61347682613143565b9050602081019050919050565b82818337600083830152505050565b60006134a56134a084613452565b613437565b9050828152602081018484840111156134c1576134c06133d2565b5b6134cc848285613483565b509392505050565b600082601f8301126134e9576134e86133cd565b5b81356134f9848260208601613492565b91505092915050565b6000806000806080858703121561351c5761351b612fd5565b5b600061352a87828801613222565b945050602061353b87828801613222565b935050604061354c878288016130bb565b925050606085013567ffffffffffffffff81111561356d5761356c612fda565b5b613579878288016134d4565b91505092959194509250565b6000806040838503121561359c5761359b612fd5565b5b60006135aa85828601613222565b92505060206135bb85828601613222565b9150509250929050565b7f4e487b7100000000000000000000000000000000000000000000000000000000600052601260045260246000fd5b60006135ff8261309a565b915061360a8361309a565b92508261361a576136196135c5565b5b828206905092915050565b7f4e487b7100000000000000000000000000000000000000000000000000000000600052603260045260246000fd5b7f4e487b7100000000000000000000000000000000000000000000000000000000600052602260045260246000fd5b6000600282049050600182168061369b57607f821691505b6020821081036136ae576136ad613654565b5b50919050565b7f4e6f20496d61206c656674000000000000000000000000000000000000000000600082015250565b60006136ea600b83613108565b91506136f5826136b4565b602082019050919050565b60006020820190508181036000830152613719816136dd565b9050919050565b7f4e487b7100000000000000000000000000000000000000000000000000000000600052601160045260246000fd5b600061375a8261309a565b91506137658361309a565b925082820190508082111561377d5761377c613720565b5b92915050565b600060608201905061379860008301866131e1565b6137a56020830185613277565b6137b260408301846131e1565b949350505050565b60006040820190506137cf60008301856131e1565b6137dc6020830184613277565b9392505050565b6000819050919050565b6137fe6137f98261309a565b6137e3565b82525050565b600061381082846137ed565b60208201915081905092915050565b7f455243373231204d657461646174613a2055524920717565727920666f72206e60008201527f6f6e6578697374656e7420746f6b656e00000000000000000000000000000000602082015250565b600061387b603083613108565b91506138868261381f565b604082019050919050565b600060208201905081810360008301526138aa8161386e565b9050919050565b600081905092915050565b7f7b226e616d65223a2022496d6120230000000000000000000000000000000000600082015250565b60006138f2600f836138b1565b91506138fd826138bc565b600f82019050919050565b6000613913826130fd565b61391d81856138b1565b935061392d818560208601613119565b80840191505092915050565b7f222c20226465736372697074696f6e223a2022496d61204d61726b6574706c6160008201527f6365222c2022696d616765223a20220000000000000000000000000000000000602082015250565b6000613995602f836138b1565b91506139a082613939565b602f82019050919050565b7f227d000000000000000000000000000000000000000000000000000000000000600082015250565b60006139e16002836138b1565b91506139ec826139ab565b600282019050919050565b6000613a02826138e5565b9150613a0e8285613908565b9150613a1982613988565b9150613a258284613908565b9150613a30826139d4565b91508190509392505050565b7f646174613a6170706c69636174696f6e2f6a736f6e3b6261736536342c000000600082015250565b6000613a72601d836138b1565b9150613a7d82613a3c565b601d82019050919050565b6000613a9382613a65565b9150613a9f8284613908565b915081905092915050565b7f3f00000000000000000000000000000000000000000000000000000000000000600082015250565b6000613ae06001836138b1565b9150613aeb82613aaa565b600182019050919050565b6000613b028285613908565b9150613b0d82613ad3565b9150613b198284613908565b91508190509392505050565b60008160011c9050919050565b6000808291508390505b6001851115613b7c57808604811115613b5857613b57613720565b5b6001851615613b675780820291505b8081029050613b7585613b25565b9450613b3c565b94509492505050565b600082613b955760019050613c51565b81613ba35760009050613c51565b8160018114613bb95760028114613bc357613bf2565b6001915050613c51565b60ff841115613bd557613bd4613720565b5b8360020a915084821115613bec57613beb613720565b5b50613c51565b5060208310610133831016604e8410600b8410161715613c275782820a905083811115613c2257613c21613720565b5b613c51565b613c348484846001613b32565b92509050818404811115613c4b57613c4a613720565b5b81810290505b9392505050565b600060ff82169050919050565b6000613c708261309a565b9150613c7b83613c58565b9250613ca87fffffffffffffffffffffffffffffffffffffffffffffffffffffffffffffffff8484613b85565b905092915050565b6000613cbb8261309a565b9150613cc68361309a565b9250828202613cd48161309a565b91508282048414831517613ceb57613cea613720565b5b5092915050565b6000613cfd82613c58565b9150613d0883613c58565b9250828201905060ff811115613d2157613d20613720565b5b92915050565b6000613d328261309a565b9150613d3d8361309a565b925082613d4d57613d4c6135c5565b5b828204905092915050565b600081519050919050565b600082825260208201905092915050565b6000613d7f82613d58565b613d898185613d63565b9350613d99818560208601613119565b613da281613143565b840191505092915050565b6000608082019050613dc260008301876131e1565b613dcf60208301866131e1565b613ddc6040830185613277565b8181036060830152613dee8184613d74565b905095945050505050565b600081519050613e088161300b565b92915050565b600060208284031215613e2457613e23612fd5565b5b6000613e3284828501613df9565b91505092915050565b7f6163636573736f72696573547970653d00000000000000000000000000000000600082015250565b6000613e716010836138b1565b9150613e7c82613e3b565b601082019050919050565b7f26636c6f746865436f6c6f723d00000000000000000000000000000000000000600082015250565b6000613ebd600d836138b1565b9150613ec882613e87565b600d82019050919050565b7f26636c6f746865547970653d0000000000000000000000000000000000000000600082015250565b6000613f09600c836138b1565b9150613f1482613ed3565b600c82019050919050565b7f26657965547970653d0000000000000000000000000000000000000000000000600082015250565b6000613f556009836138b1565b9150613f6082613f1f565b600982019050919050565b7f2665796562726f77547970653d00000000000000000000000000000000000000600082015250565b6000613fa1600d836138b1565b9150613fac82613f6b565b600d82019050919050565b7f2666616369616c48616972436f6c6f723d000000000000000000000000000000600082015250565b6000613fed6011836138b1565b9150613ff882613fb7565b601182019050919050565b7f2666616369616c48616972547970653d00000000000000000000000000000000600082015250565b60006140396010836138b1565b915061404482614003565b601082019050919050565b7f2668616972436f6c6f723d000000000000000000000000000000000000000000600082015250565b6000614085600b836138b1565b91506140908261404f565b600b82019050919050565b7f26686174436f6c6f723d00000000000000000000000000000000000000000000600082015250565b60006140d1600a836138b1565b91506140dc8261409b565b600a82019050919050565b7f2667726170686963547970653d00000000000000000000000000000000000000600082015250565b600061411d600d836138b1565b9150614128826140e7565b600d82019050919050565b7f266d6f757468547970653d000000000000000000000000000000000000000000600082015250565b6000614169600b836138b1565b915061417482614133565b600b82019050919050565b7f26736b696e436f6c6f723d000000000000000000000000000000000000000000600082015250565b60006141b5600b836138b1565b91506141c08261417f565b600b82019050919050565b60006141d682613e64565b91506141e2828f613908565b91506141ed82613eb0565b91506141f9828e613908565b915061420482613efc565b9150614210828d613908565b915061421b82613f48565b9150614227828c613908565b915061423282613f94565b915061423e828b613908565b915061424982613fe0565b9150614255828a613908565b91506142608261402c565b915061426c8289613908565b915061427782614078565b91506142838288613908565b915061428e826140c4565b915061429a8287613908565b91506142a582614110565b91506142b18286613908565b91506142bc8261415c565b91506142c88285613908565b91506142d3826141a8565b91506142df8284613908565b91508190509d9c50505050505050505050505050565b7f26746f70547970653d0000000000000000000000000000000000000000000000600082015250565b600061432b6009836138b1565b9150614336826142f5565b600982019050919050565b600061434d8285613908565b91506143588261431e565b91506143648284613908565b91508190509392505050565b600061437b8261309a565b91506143868361309a565b925082820390508181111561439e5761439d613720565b5b92915050565b7f4e487b7100000000000000000000000000000000000000000000000000000000600052603160045260246000fdfe4142434445464748494a4b4c4d4e4f505152535455565758595a6162636465666768696a6b6c6d6e6f707172737475767778797a303132333435363738392b2fa264697066735822122068beae4663c771a23d4cefabde16f0b72710ba087dd5c3088f7e6a7cc68a5ddb64736f6c63430008180033",
  "devdoc": {
    "errors": {
      "ERC721EnumerableForbiddenBatchMint()": [
        {
          "details": "Batch mint is not allowed."
        }
      ],
      "ERC721IncorrectOwner(address,uint256,address)": [
        {
          "details": "Indicates an error related to the ownership over a particular token. Used in transfers.",
          "params": {
            "owner": "Address of the current owner of a token.",
            "sender": "Address whose tokens are being transferred.",
            "tokenId": "Identifier number of a token."
          }
        }
      ],
      "ERC721InsufficientApproval(address,uint256)": [
        {
          "details": "Indicates a failure with the `operator`s approval. Used in transfers.",
          "params": {
            "operator": "Address that may be allowed to operate on tokens without being their owner.",
            "tokenId": "Identifier number of a token."
          }
        }
      ],
      "ERC721InvalidApprover(address)": [
        {
          "details": "Indicates a failure with the `approver` of a token to be approved. Used in approvals.",
          "params": {
            "approver": "Address initiating an approval operation."
          }
        }
      ],
      "ERC721InvalidOperator(address)": [
        {
          "details": "Indicates a failure with the `operator` to be approved. Used in approvals.",
          "params": {
            "operator": "Address that may be allowed to operate on tokens without being their owner."
          }
        }
      ],
      "ERC721InvalidOwner(address)": [
        {
          "details": "Indicates that an address can't be an owner. For example, `address(0)` is a forbidden owner in EIP-20. Used in balance queries.",
          "params": {
            "owner": "Address of the current owner of a token."
          }
        }
      ],
      "ERC721InvalidReceiver(address)": [
        {
          "details": "Indicates a failure with the token `receiver`. Used in transfers.",
          "params": {
            "receiver": "Address to which tokens are being transferred."
          }
        }
      ],
      "ERC721InvalidSender(address)": [
        {
          "details": "Indicates a failure with the token `sender`. Used in transfers.",
          "params": {
            "sender": "Address whose tokens are being transferred."
          }
        }
      ],
      "ERC721NonexistentToken(uint256)": [
        {
          "details": "Indicates a `tokenId` whose `owner` is the zero address.",
          "params": {
            "tokenId": "Identifier number of a token."
          }
        }
      ],
      "ERC721OutOfBoundsIndex(address,uint256)": [
        {
          "details": "An `owner`'s token query was out of bounds for `index`. NOTE: The owner being `address(0)` indicates a global out of bounds index."
        }
      ]
    },
    "events": {
      "Approval(address,address,uint256)": {
        "details": "Emitted when `owner` enables `approved` to manage the `tokenId` token."
      },
      "ApprovalForAll(address,address,bool)": {
        "details": "Emitted when `owner` enables or disables (`approved`) `operator` to manage all of its assets."
      },
      "Transfer(address,address,uint256)": {
        "details": "Emitted when `tokenId` token is transferred from `from` to `to`."
      }
    },
    "kind": "dev",
    "methods": {
      "approve(address,uint256)": {
        "details": "See {IERC721-approve}."
      },
      "balanceOf(address)": {
        "details": "See {IERC721-balanceOf}."
      },
      "getApproved(uint256)": {
        "details": "See {IERC721-getApproved}."
      },
      "isApprovedForAll(address,address)": {
        "details": "See {IERC721-isApprovedForAll}."
      },
      "name()": {
        "details": "See {IERC721Metadata-name}."
      },
      "ownerOf(uint256)": {
        "details": "See {IERC721-ownerOf}."
      },
      "safeTransferFrom(address,address,uint256)": {
        "details": "See {IERC721-safeTransferFrom}."
      },
      "safeTransferFrom(address,address,uint256,bytes)": {
        "details": "See {IERC721-safeTransferFrom}."
      },
      "setApprovalForAll(address,bool)": {
        "details": "See {IERC721-setApprovalForAll}."
      },
      "symbol()": {
        "details": "See {IERC721Metadata-symbol}."
      },
      "tokenByIndex(uint256)": {
        "details": "See {IERC721Enumerable-tokenByIndex}."
      },
      "tokenOfOwnerByIndex(address,uint256)": {
        "details": "See {IERC721Enumerable-tokenOfOwnerByIndex}."
      },
      "tokenURI(uint256)": {
        "details": "See {IERC721Metadata-tokenURI}."
      },
      "totalSupply()": {
        "details": "See {IERC721Enumerable-totalSupply}."
      },
      "transferFrom(address,address,uint256)": {
        "details": "See {IERC721-transferFrom}."
      }
    },
    "version": 1
  },
  "userdoc": {
    "kind": "user",
    "methods": {},
    "version": 1
  },
  "storageLayout": {
    "storage": [
      {
        "astId": 169,
        "contract": "contracts/Ima.sol:Ima",
        "label": "_name",
        "offset": 0,
        "slot": "0",
        "type": "t_string_storage"
      },
      {
        "astId": 171,
        "contract": "contracts/Ima.sol:Ima",
        "label": "_symbol",
        "offset": 0,
        "slot": "1",
        "type": "t_string_storage"
      },
      {
        "astId": 175,
        "contract": "contracts/Ima.sol:Ima",
        "label": "_owners",
        "offset": 0,
        "slot": "2",
        "type": "t_mapping(t_uint256,t_address)"
      },
      {
        "astId": 179,
        "contract": "contracts/Ima.sol:Ima",
        "label": "_balances",
        "offset": 0,
        "slot": "3",
        "type": "t_mapping(t_address,t_uint256)"
      },
      {
        "astId": 183,
        "contract": "contracts/Ima.sol:Ima",
        "label": "_tokenApprovals",
        "offset": 0,
        "slot": "4",
        "type": "t_mapping(t_uint256,t_address)"
      },
      {
        "astId": 189,
        "contract": "contracts/Ima.sol:Ima",
        "label": "_operatorApprovals",
        "offset": 0,
        "slot": "5",
        "type": "t_mapping(t_address,t_mapping(t_address,t_bool))"
      },
      {
        "astId": 1299,
        "contract": "contracts/Ima.sol:Ima",
        "label": "_ownedTokens",
        "offset": 0,
        "slot": "6",
        "type": "t_mapping(t_address,t_mapping(t_uint256,t_uint256))"
      },
      {
        "astId": 1303,
        "contract": "contracts/Ima.sol:Ima",
        "label": "_ownedTokensIndex",
        "offset": 0,
        "slot": "7",
        "type": "t_mapping(t_uint256,t_uint256)"
      },
      {
        "astId": 1306,
        "contract": "contracts/Ima.sol:Ima",
        "label": "_allTokens",
        "offset": 0,
        "slot": "8",
        "type": "t_array(t_uint256)dyn_storage"
      },
      {
        "astId": 1310,
        "contract": "contracts/Ima.sol:Ima",
        "label": "_allTokensIndex",
        "offset": 0,
        "slot": "9",
        "type": "t_mapping(t_uint256,t_uint256)"
      },
      {
        "astId": 3587,
        "contract": "contracts/Ima.sol:Ima",
        "label": "_accessoriesType",
        "offset": 0,
        "slot": "10",
        "type": "t_array(t_string_storage)dyn_storage"
      },
      {
        "astId": 3606,
        "contract": "contracts/Ima.sol:Ima",
        "label": "_clotheColor",
        "offset": 0,
        "slot": "11",
        "type": "t_array(t_string_storage)dyn_storage"
      },
      {
        "astId": 3619,
        "contract": "contracts/Ima.sol:Ima",
        "label": "_clotheType",
        "offset": 0,
        "slot": "12",
        "type": "t_array(t_string_storage)dyn_storage"
      },
      {
        "astId": 3635,
        "contract": "contracts/Ima.sol:Ima",
        "label": "_eyeType",
        "offset": 0,
        "slot": "13",
        "type": "t_array(t_string_storage)dyn_storage"
      },
      {
        "astId": 3651,
        "contract": "contracts/Ima.sol:Ima",
        "label": "_eyebrowType",
        "offset": 0,
        "slot": "14",
        "type": "t_array(t_string_storage)dyn_storage"
      },
      {
        "astId": 3663,
        "contract": "contracts/Ima.sol:Ima",
        "label": "_facialHairColor",
        "offset": 0,
        "slot": "15",
        "type": "t_array(t_string_storage)dyn_storage"
      },
      {
        "astId": 3673,
        "contract": "contracts/Ima.sol:Ima",
        "label": "_facialHairType",
        "offset": 0,
        "slot": "16",
        "type": "t_array(t_string_storage)dyn_storage"
      },
      {
        "astId": 3687,
        "contract": "contracts/Ima.sol:Ima",
        "label": "_hairColor",
        "offset": 0,
        "slot": "17",
        "type": "t_array(t_string_storage)dyn_storage"
      },
      {
        "astId": 3706,
        "contract": "contracts/Ima.sol:Ima",
        "label": "_hatColor",
        "offset": 0,
        "slot": "18",
        "type": "t_array(t_string_storage)dyn_storage"
      },
      {
        "astId": 3721,
        "contract": "contracts/Ima.sol:Ima",
        "label": "_graphicType",
        "offset": 0,
        "slot": "19",
        "type": "t_array(t_string_storage)dyn_storage"
      },
      {
        "astId": 3737,
        "contract": "contracts/Ima.sol:Ima",
        "label": "_mouthType",
        "offset": 0,
        "slot": "20",
        "type": "t_array(t_string_storage)dyn_storage"
      },
      {
        "astId": 3748,
        "contract": "contracts/Ima.sol:Ima",
        "label": "_skinColor",
        "offset": 0,
        "slot": "21",
        "type": "t_array(t_string_storage)dyn_storage"
      },
      {
        "astId": 3787,
        "contract": "contracts/Ima.sol:Ima",
        "label": "_topType",
        "offset": 0,
        "slot": "22",
        "type": "t_array(t_string_storage)dyn_storage"
      },
      {
        "astId": 3269,
        "contract": "contracts/Ima.sol:Ima",
        "label": "_counterId",
        "offset": 0,
        "slot": "23",
        "type": "t_uint256"
      },
      {
        "astId": 3271,
        "contract": "contracts/Ima.sol:Ima",
        "label": "maxSupply",
        "offset": 0,
        "slot": "24",
        "type": "t_uint256"
      },
      {
        "astId": 3275,
        "contract": "contracts/Ima.sol:Ima",
        "label": "tokenDNA",
        "offset": 0,
        "slot": "25",
        "type": "t_mapping(t_uint256,t_uint256)"
      }
    ],
    "types": {
      "t_address": {
        "encoding": "inplace",
        "label": "address",
        "numberOfBytes": "20"
      },
      "t_array(t_string_storage)dyn_storage": {
        "base": "t_string_storage",
        "encoding": "dynamic_array",
        "label": "string[]",
        "numberOfBytes": "32"
      },
      "t_array(t_uint256)dyn_storage": {
        "base": "t_uint256",
        "encoding": "dynamic_array",
        "label": "uint256[]",
        "numberOfBytes": "32"
      },
      "t_bool": {
        "encoding": "inplace",
        "label": "bool",
        "numberOfBytes": "1"
      },
      "t_mapping(t_address,t_bool)": {
        "encoding": "mapping",
        "key": "t_address",
        "label": "mapping(address => bool)",
        "numberOfBytes": "32",
        "value": "t_bool"
      },
      "t_mapping(t_address,t_mapping(t_address,t_bool))": {
        "encoding": "mapping",
        "key": "t_address",
        "label": "mapping(address => mapping(address => bool))",
        "numberOfBytes": "32",
        "value": "t_mapping(t_address,t_bool)"
      },
      "t_mapping(t_address,t_mapping(t_uint256,t_uint256))": {
        "encoding": "mapping",
        "key": "t_address",
        "label": "mapping(address => mapping(uint256 => uint256))",
        "numberOfBytes": "32",
        "value": "t_mapping(t_uint256,t_uint256)"
      },
      "t_mapping(t_address,t_uint256)": {
        "encoding": "mapping",
        "key": "t_address",
        "label": "mapping(address => uint256)",
        "numberOfBytes": "32",
        "value": "t_uint256"
      },
      "t_mapping(t_uint256,t_address)": {
        "encoding": "mapping",
        "key": "t_uint256",
        "label": "mapping(uint256 => address)",
        "numberOfBytes": "32",
        "value": "t_address"
      },
      "t_mapping(t_uint256,t_uint256)": {
        "encoding": "mapping",
        "key": "t_uint256",
        "label": "mapping(uint256 => uint256)",
        "numberOfBytes": "32",
        "value": "t_uint256"
      },
      "t_string_storage": {
        "encoding": "bytes",
        "label": "string",
        "numberOfBytes": "32"
      },
      "t_uint256": {
        "encoding": "inplace",
        "label": "uint256",
        "numberOfBytes": "32"
      }
    }
  }
}